{
  "contractName": "Voting",
  "abi": [
    {
      "inputs": [],
      "stateMutability": "nonpayable",
      "type": "constructor"
    },
    {
      "anonymous": false,
      "inputs": [
        {
          "indexed": true,
          "internalType": "uint256",
          "name": "electionId",
          "type": "uint256"
        },
        {
          "indexed": true,
          "internalType": "uint256",
          "name": "candidateId",
          "type": "uint256"
        },
        {
          "indexed": false,
          "internalType": "string",
          "name": "name",
          "type": "string"
        },
        {
          "indexed": false,
          "internalType": "string",
          "name": "party",
          "type": "string"
        }
      ],
      "name": "CandidateAdded",
      "type": "event"
    },
    {
      "anonymous": false,
      "inputs": [
        {
          "indexed": true,
          "internalType": "uint256",
          "name": "electionId",
          "type": "uint256"
        },
        {
          "indexed": true,
          "internalType": "uint256",
          "name": "candidateId",
          "type": "uint256"
        },
        {
          "indexed": false,
          "internalType": "bool",
          "name": "isActive",
          "type": "bool"
        }
      ],
      "name": "CandidateStatusChanged",
      "type": "event"
    },
    {
      "anonymous": false,
      "inputs": [
        {
          "indexed": true,
          "internalType": "uint256",
          "name": "electionId",
          "type": "uint256"
        },
        {
          "indexed": false,
          "internalType": "string",
          "name": "name",
          "type": "string"
        },
        {
          "indexed": false,
          "internalType": "uint256",
          "name": "startTime",
          "type": "uint256"
        },
        {
          "indexed": false,
          "internalType": "uint256",
          "name": "endTime",
          "type": "uint256"
        }
      ],
      "name": "ElectionCreated",
      "type": "event"
    },
    {
      "anonymous": false,
      "inputs": [
        {
          "indexed": true,
          "internalType": "uint256",
          "name": "electionId",
          "type": "uint256"
        }
      ],
      "name": "ElectionEnded",
      "type": "event"
    },
    {
      "anonymous": false,
      "inputs": [
        {
          "indexed": true,
          "internalType": "uint256",
          "name": "electionId",
          "type": "uint256"
        }
      ],
      "name": "ElectionStarted",
      "type": "event"
    },
    {
      "anonymous": false,
      "inputs": [
        {
          "indexed": true,
          "internalType": "uint256",
          "name": "electionId",
          "type": "uint256"
        },
        {
          "indexed": true,
          "internalType": "address",
          "name": "voter",
          "type": "address"
        },
        {
          "indexed": true,
          "internalType": "uint256",
          "name": "candidateId",
          "type": "uint256"
        }
      ],
      "name": "VoteCast",
      "type": "event"
    },
    {
      "anonymous": false,
      "inputs": [
        {
          "indexed": true,
          "internalType": "uint256",
          "name": "electionId",
          "type": "uint256"
        },
        {
          "indexed": true,
          "internalType": "address",
          "name": "voter",
          "type": "address"
        }
      ],
      "name": "VoterRegistered",
      "type": "event"
    },
    {
      "inputs": [
        {
          "internalType": "uint256",
          "name": "",
          "type": "uint256"
        },
        {
          "internalType": "uint256",
          "name": "",
          "type": "uint256"
        }
      ],
      "name": "candidates",
      "outputs": [
        {
          "internalType": "uint256",
          "name": "id",
          "type": "uint256"
        },
        {
          "internalType": "string",
          "name": "name",
          "type": "string"
        },
        {
          "internalType": "string",
          "name": "party",
          "type": "string"
        },
        {
          "internalType": "uint256",
          "name": "voteCount",
          "type": "uint256"
        },
        {
          "internalType": "bool",
          "name": "isActive",
          "type": "bool"
        }
      ],
      "stateMutability": "view",
      "type": "function",
      "constant": true
    },
    {
      "inputs": [],
      "name": "currentElectionId",
      "outputs": [
        {
          "internalType": "uint256",
          "name": "",
          "type": "uint256"
        }
      ],
      "stateMutability": "view",
      "type": "function",
      "constant": true
    },
    {
      "inputs": [
        {
          "internalType": "uint256",
          "name": "",
          "type": "uint256"
        },
        {
          "internalType": "uint256",
          "name": "",
          "type": "uint256"
        }
      ],
      "name": "electionCandidates",
      "outputs": [
        {
          "internalType": "uint256",
          "name": "",
          "type": "uint256"
        }
      ],
      "stateMutability": "view",
      "type": "function",
      "constant": true
    },
    {
      "inputs": [
        {
          "internalType": "uint256",
          "name": "",
          "type": "uint256"
        },
        {
          "internalType": "uint256",
          "name": "",
          "type": "uint256"
        }
      ],
      "name": "electionVoters",
      "outputs": [
        {
          "internalType": "address",
          "name": "",
          "type": "address"
        }
      ],
      "stateMutability": "view",
      "type": "function",
      "constant": true
    },
    {
      "inputs": [
        {
          "internalType": "uint256",
          "name": "",
          "type": "uint256"
        }
      ],
      "name": "elections",
      "outputs": [
        {
          "internalType": "uint256",
          "name": "id",
          "type": "uint256"
        },
        {
          "internalType": "string",
          "name": "name",
          "type": "string"
        },
        {
          "internalType": "string",
          "name": "description",
          "type": "string"
        },
        {
          "internalType": "uint256",
          "name": "startTime",
          "type": "uint256"
        },
        {
          "internalType": "uint256",
          "name": "endTime",
          "type": "uint256"
        },
        {
          "internalType": "bool",
          "name": "isActive",
          "type": "bool"
        },
        {
          "internalType": "uint256",
          "name": "totalVotes",
          "type": "uint256"
        }
      ],
      "stateMutability": "view",
      "type": "function",
      "constant": true
    },
    {
      "inputs": [],
      "name": "owner",
      "outputs": [
        {
          "internalType": "address",
          "name": "",
          "type": "address"
        }
      ],
      "stateMutability": "view",
      "type": "function",
      "constant": true
    },
    {
      "inputs": [],
      "name": "totalElections",
      "outputs": [
        {
          "internalType": "uint256",
          "name": "",
          "type": "uint256"
        }
      ],
      "stateMutability": "view",
      "type": "function",
      "constant": true
    },
    {
      "inputs": [
        {
          "internalType": "uint256",
          "name": "",
          "type": "uint256"
        },
        {
          "internalType": "address",
          "name": "",
          "type": "address"
        }
      ],
      "name": "voters",
      "outputs": [
        {
          "internalType": "bool",
          "name": "isRegistered",
          "type": "bool"
        },
        {
          "internalType": "bool",
          "name": "hasVoted",
          "type": "bool"
        },
        {
          "internalType": "uint256",
          "name": "votedFor",
          "type": "uint256"
        },
        {
          "internalType": "uint256",
          "name": "registrationTime",
          "type": "uint256"
        }
      ],
      "stateMutability": "view",
      "type": "function",
      "constant": true
    },
    {
      "inputs": [
        {
          "internalType": "string",
          "name": "_name",
          "type": "string"
        },
        {
          "internalType": "string",
          "name": "_description",
          "type": "string"
        },
        {
          "internalType": "uint256",
          "name": "_startTime",
          "type": "uint256"
        },
        {
          "internalType": "uint256",
          "name": "_endTime",
          "type": "uint256"
        }
      ],
      "name": "createElection",
      "outputs": [
        {
          "internalType": "uint256",
          "name": "",
          "type": "uint256"
        }
      ],
      "stateMutability": "nonpayable",
      "type": "function"
    },
    {
      "inputs": [
        {
          "internalType": "uint256",
          "name": "_electionId",
          "type": "uint256"
        },
        {
          "internalType": "uint256",
          "name": "_candidateId",
          "type": "uint256"
        },
        {
          "internalType": "string",
          "name": "_name",
          "type": "string"
        },
        {
          "internalType": "string",
          "name": "_party",
          "type": "string"
        }
      ],
      "name": "addCandidate",
      "outputs": [],
      "stateMutability": "nonpayable",
      "type": "function"
    },
    {
      "inputs": [
        {
          "internalType": "uint256",
          "name": "_electionId",
          "type": "uint256"
        },
        {
          "internalType": "address",
          "name": "_voter",
          "type": "address"
        }
      ],
      "name": "registerVoter",
      "outputs": [],
      "stateMutability": "nonpayable",
      "type": "function"
    },
    {
      "inputs": [
        {
          "internalType": "uint256",
          "name": "_electionId",
          "type": "uint256"
        },
        {
          "internalType": "uint256",
          "name": "_candidateId",
          "type": "uint256"
        }
      ],
      "name": "vote",
      "outputs": [],
      "stateMutability": "nonpayable",
      "type": "function"
    },
    {
      "inputs": [
        {
          "internalType": "uint256",
          "name": "_electionId",
          "type": "uint256"
        },
        {
          "internalType": "uint256",
          "name": "_candidateId",
          "type": "uint256"
        }
      ],
      "name": "getCandidate",
      "outputs": [
        {
          "internalType": "uint256",
          "name": "id",
          "type": "uint256"
        },
        {
          "internalType": "string",
          "name": "name",
          "type": "string"
        },
        {
          "internalType": "string",
          "name": "party",
          "type": "string"
        },
        {
          "internalType": "uint256",
          "name": "voteCount",
          "type": "uint256"
        },
        {
          "internalType": "bool",
          "name": "isActive",
          "type": "bool"
        }
      ],
      "stateMutability": "view",
      "type": "function",
      "constant": true
    },
    {
      "inputs": [
        {
          "internalType": "uint256",
          "name": "_electionId",
          "type": "uint256"
        },
        {
          "internalType": "address",
          "name": "_voter",
          "type": "address"
        }
      ],
      "name": "getVoter",
      "outputs": [
        {
          "internalType": "bool",
          "name": "isRegistered",
          "type": "bool"
        },
        {
          "internalType": "bool",
          "name": "hasVoted",
          "type": "bool"
        },
        {
          "internalType": "uint256",
          "name": "votedFor",
          "type": "uint256"
        },
        {
          "internalType": "uint256",
          "name": "registrationTime",
          "type": "uint256"
        }
      ],
      "stateMutability": "view",
      "type": "function",
      "constant": true
    },
    {
      "inputs": [
        {
          "internalType": "uint256",
          "name": "_electionId",
          "type": "uint256"
        }
      ],
      "name": "getElection",
      "outputs": [
        {
          "internalType": "uint256",
          "name": "id",
          "type": "uint256"
        },
        {
          "internalType": "string",
          "name": "name",
          "type": "string"
        },
        {
          "internalType": "string",
          "name": "description",
          "type": "string"
        },
        {
          "internalType": "uint256",
          "name": "startTime",
          "type": "uint256"
        },
        {
          "internalType": "uint256",
          "name": "endTime",
          "type": "uint256"
        },
        {
          "internalType": "bool",
          "name": "isActive",
          "type": "bool"
        },
        {
          "internalType": "uint256",
          "name": "totalVotes",
          "type": "uint256"
        }
      ],
      "stateMutability": "view",
      "type": "function",
      "constant": true
    },
    {
      "inputs": [
        {
          "internalType": "uint256",
          "name": "_electionId",
          "type": "uint256"
        }
      ],
      "name": "getElectionCandidates",
      "outputs": [
        {
          "internalType": "uint256[]",
          "name": "",
          "type": "uint256[]"
        }
      ],
      "stateMutability": "view",
      "type": "function",
      "constant": true
    },
    {
      "inputs": [
        {
          "internalType": "uint256",
          "name": "_electionId",
          "type": "uint256"
        }
      ],
      "name": "getResults",
      "outputs": [
        {
          "internalType": "uint256[]",
          "name": "candidateIds",
          "type": "uint256[]"
        },
        {
          "internalType": "uint256[]",
          "name": "voteCounts",
          "type": "uint256[]"
        }
      ],
      "stateMutability": "view",
      "type": "function",
      "constant": true
    },
    {
      "inputs": [
        {
          "internalType": "uint256",
          "name": "_electionId",
          "type": "uint256"
        }
      ],
      "name": "getWinner",
      "outputs": [
        {
          "internalType": "uint256",
          "name": "winnerId",
          "type": "uint256"
        },
        {
          "internalType": "string",
          "name": "winnerName",
          "type": "string"
        },
        {
          "internalType": "string",
          "name": "winnerParty",
          "type": "string"
        },
        {
          "internalType": "uint256",
          "name": "winnerVotes",
          "type": "uint256"
        }
      ],
      "stateMutability": "view",
      "type": "function",
      "constant": true
    },
    {
      "inputs": [
        {
          "internalType": "uint256",
          "name": "_electionId",
          "type": "uint256"
        }
      ],
      "name": "isVotingActive",
      "outputs": [
        {
          "internalType": "bool",
          "name": "",
          "type": "bool"
        }
      ],
      "stateMutability": "view",
      "type": "function",
      "constant": true
    },
    {
      "inputs": [
        {
          "internalType": "uint256",
          "name": "_electionId",
          "type": "uint256"
        }
      ],
      "name": "endElection",
      "outputs": [],
      "stateMutability": "nonpayable",
      "type": "function"
    },
    {
      "inputs": [
        {
          "internalType": "uint256",
          "name": "_electionId",
          "type": "uint256"
        },
        {
          "internalType": "uint256",
          "name": "_candidateId",
          "type": "uint256"
        },
        {
          "internalType": "bool",
          "name": "_isActive",
          "type": "bool"
        }
      ],
      "name": "setCandidateStatus",
      "outputs": [],
      "stateMutability": "nonpayable",
      "type": "function"
    },
    {
      "inputs": [
        {
          "internalType": "uint256",
          "name": "_electionId",
          "type": "uint256"
        }
      ],
      "name": "getTotalVoters",
      "outputs": [
        {
          "internalType": "uint256",
          "name": "",
          "type": "uint256"
        }
      ],
      "stateMutability": "view",
      "type": "function",
      "constant": true
    },
    {
      "inputs": [
        {
          "internalType": "uint256",
          "name": "_electionId",
          "type": "uint256"
        }
      ],
      "name": "getTotalVotes",
      "outputs": [
        {
          "internalType": "uint256",
          "name": "",
          "type": "uint256"
        }
      ],
      "stateMutability": "view",
      "type": "function",
      "constant": true
    },
    {
      "inputs": [
        {
          "internalType": "address",
          "name": "_newOwner",
          "type": "address"
        }
      ],
      "name": "transferOwnership",
      "outputs": [],
      "stateMutability": "nonpayable",
      "type": "function"
    },
    {
      "inputs": [],
      "name": "emergencyPause",
      "outputs": [],
      "stateMutability": "nonpayable",
      "type": "function"
    },
    {
      "inputs": [],
      "name": "getContractInfo",
      "outputs": [
        {
          "internalType": "string",
          "name": "version",
          "type": "string"
        },
        {
          "internalType": "string",
          "name": "description",
          "type": "string"
        }
      ],
      "stateMutability": "pure",
      "type": "function",
      "constant": true
    }
  ],
  "bytecode": "0x608060405234801561001057600080fd5b50336000806101000a81548173ffffffffffffffffffffffffffffffffffffffff021916908373ffffffffffffffffffffffffffffffffffffffff16021790555060006007819055506000600181905550613f50806100706000396000f3fe608060405234801561001057600080fd5b50600436106101ab576000357c01000000000000000000000000000000000000000000000000000000009004806381a60c0d116100fb5780639d710777116100b4578063b384abef1161008e578063b384abef14610559578063db7d2ece14610575578063f2fde38b14610591578063f46d7b34146105ad576101ab565b80639d710777146104c05780639e319063146104f6578063a42c56f714610529576101ab565b806381a60c0d146103e85780638da5cb5b146104195780638f47b1461461043757806394c790bb1461046a57806398ecf2a0146104865780639c98bcbb146104a4576101ab565b80635e12845e116101685780637ad36e84116101425780637ad36e84146103475780637cc1f867146103775780637de14242146103965780637fa1ca74146103ca576101ab565b80635e12845e146102b15780635e6fef01146102e1578063772744b514610317576101ab565b806305f58d6a146101b05780632ce35e11146101e05780634129b2c91461021057806343d3a4c1146102435780634bd464481461027357806351858e27146102a7575b600080fd5b6101ca60048036038101906101c59190612b3f565b6105c9565b6040516101d79190612bc0565b60405180910390f35b6101fa60048036038101906101f59190612bdb565b610617565b6040516102079190612c17565b60405180910390f35b61022a60048036038101906102259190612bdb565b61068a565b60405161023a9493929190612cc2565b60405180910390f35b61025d60048036038101906102589190612bdb565b610a12565b60405161026a9190612c17565b60405180910390f35b61028d60048036038101906102889190612b3f565b610a85565b60405161029e959493929190612d30565b60405180910390f35b6102af610c94565b005b6102cb60048036038101906102c69190612bdb565b610d24565b6040516102d89190612e4f565b60405180910390f35b6102fb60048036038101906102f69190612bdb565b610de2565b60405161030e9796959493929190612e71565b60405180910390f35b610331600480360381019061032c9190612bdb565b610f41565b60405161033e9190612eee565b60405180910390f35b610361600480360381019061035c919061303e565b61114c565b60405161036e9190612c17565b60405180910390f35b61037f6113d4565b60405161038d9291906130dd565b60405180910390f35b6103b060048036038101906103ab9190612b3f565b61142e565b6040516103c1959493929190612d30565b60405180910390f35b6103d261158e565b6040516103df9190612c17565b60405180910390f35b61040260048036038101906103fd9190612bdb565b611594565b604051610410929190613114565b60405180910390f35b61042161172c565b60405161042e9190612bc0565b60405180910390f35b610451600480360381019061044c9190613177565b611750565b60405161046194939291906131b7565b60405180910390f35b610484600480360381019061047f9190613177565b611878565b005b61048e611bf4565b60405161049b9190612c17565b60405180910390f35b6104be60048036038101906104b99190612bdb565b611bfa565b005b6104da60048036038101906104d59190612bdb565b611d3a565b6040516104ed9796959493929190612e71565b60405180910390f35b610510600480360381019061050b9190613177565b611f5e565b60405161052094939291906131b7565b60405180910390f35b610543600480360381019061053e9190612b3f565b611fb5565b6040516105509190612c17565b60405180910390f35b610573600480360381019061056e9190612b3f565b611fe6565b005b61058f600480360381019061058a9190613228565b6124ed565b005b6105ab60048036038101906105a6919061327b565b6126b5565b005b6105c760048036038101906105c291906132a8565b6127f5565b005b600660205281600052604060002081815481106105e557600080fd5b906000526020600020016000915091509054906101000a900473ffffffffffffffffffffffffffffffffffffffff1681565b60008160008111801561062c57506007548111155b61066b576040517f08c379a000000000000000000000000000000000000000000000000000000000815260040161066290613393565b60405180910390fd5b6002600084815260200190815260200160002060060154915050919050565b60006060806000846000811180156106a457506007548111155b6106e3576040517f08c379a00000000000000000000000000000000000000000000000000000000081526004016106da90613393565b60405180910390fd5b60006005600088815260200190815260200160002080548060200260200160405190810160405280929190818152602001828054801561074257602002820191906000526020600020905b81548152602001906001019080831161072e575b5050505050905060008060005b835181101561082557600084828151811061076d5761076c6133b3565b5b6020026020010151905083600360008d81526020019081526020016000206000838152602001908152602001600020600301541180156107de5750600360008c8152602001908152602001600020600082815260200190815260200160002060040160009054906101000a900460ff165b1561081157600360008c815260200190815260200160002060008281526020019081526020016000206003015493508092505b50808061081d90613411565b91505061074f565b50600081146109d9576000600360008b815260200190815260200160002060008381526020019081526020016000206040518060a00160405290816000820154815260200160018201805461087990613488565b80601f01602080910402602001604051908101604052809291908181526020018280546108a590613488565b80156108f25780601f106108c7576101008083540402835291602001916108f2565b820191906000526020600020905b8154815290600101906020018083116108d557829003601f168201915b5050505050815260200160028201805461090b90613488565b80601f016020809104026020016040519081016040528092919081815260200182805461093790613488565b80156109845780601f1061095957610100808354040283529160200191610984565b820191906000526020600020905b81548152906001019060200180831161096757829003601f168201915b50505050508152602001600382015481526020016004820160009054906101000a900460ff16151515158152505090508060000151816020015182604001518360600151985098509850985050505050610a0a565b6000806040518060200160405280600081525090604051806020016040528060008152509097509750975097505050505b509193509193565b600081600081118015610a2757506007548111155b610a66576040517f08c379a0000000000000000000000000000000000000000000000000000000008152600401610a5d90613393565b60405180910390fd5b6006600084815260200190815260200160002080549050915050919050565b600060608060008086600081118015610aa057506007548111155b610adf576040517f08c379a0000000000000000000000000000000000000000000000000000000008152600401610ad690613393565b60405180910390fd5b6000600360008a815260200190815260200160002060008981526020019081526020016000206040518060a001604052908160008201548152602001600182018054610b2a90613488565b80601f0160208091040260200160405190810160405280929190818152602001828054610b5690613488565b8015610ba35780601f10610b7857610100808354040283529160200191610ba3565b820191906000526020600020905b815481529060010190602001808311610b8657829003601f168201915b50505050508152602001600282018054610bbc90613488565b80601f0160208091040260200160405190810160405280929190818152602001828054610be890613488565b8015610c355780601f10610c0a57610100808354040283529160200191610c35565b820191906000526020600020905b815481529060010190602001808311610c1857829003601f168201915b50505050508152602001600382015481526020016004820160009054906101000a900460ff1615151515815250509050806000015181602001518260400151836060015184608001519650965096509650965050509295509295909350565b60008054906101000a900473ffffffffffffffffffffffffffffffffffffffff1673ffffffffffffffffffffffffffffffffffffffff163373ffffffffffffffffffffffffffffffffffffffff1614610d22576040517f08c379a0000000000000000000000000000000000000000000000000000000008152600401610d199061352b565b60405180910390fd5b565b606081600081118015610d3957506007548111155b610d78576040517f08c379a0000000000000000000000000000000000000000000000000000000008152600401610d6f90613393565b60405180910390fd5b60056000848152602001908152602001600020805480602002602001604051908101604052809291908181526020018280548015610dd557602002820191906000526020600020905b815481526020019060010190808311610dc1575b5050505050915050919050565b6002602052806000526040600020600091509050806000015490806001018054610e0b90613488565b80601f0160208091040260200160405190810160405280929190818152602001828054610e3790613488565b8015610e845780601f10610e5957610100808354040283529160200191610e84565b820191906000526020600020905b815481529060010190602001808311610e6757829003601f168201915b505050505090806002018054610e9990613488565b80601f0160208091040260200160405190810160405280929190818152602001828054610ec590613488565b8015610f125780601f10610ee757610100808354040283529160200191610f12565b820191906000526020600020905b815481529060010190602001808311610ef557829003601f168201915b5050505050908060030154908060040154908060050160009054906101000a900460ff16908060060154905087565b600081600081118015610f5657506007548111155b610f95576040517f08c379a0000000000000000000000000000000000000000000000000000000008152600401610f8c90613393565b60405180910390fd5b6000600260008581526020019081526020016000206040518060e001604052908160008201548152602001600182018054610fcf90613488565b80601f0160208091040260200160405190810160405280929190818152602001828054610ffb90613488565b80156110485780601f1061101d57610100808354040283529160200191611048565b820191906000526020600020905b81548152906001019060200180831161102b57829003601f168201915b5050505050815260200160028201805461106190613488565b80601f016020809104026020016040519081016040528092919081815260200182805461108d90613488565b80156110da5780601f106110af576101008083540402835291602001916110da565b820191906000526020600020905b8154815290600101906020018083116110bd57829003601f168201915b5050505050815260200160038201548152602001600482015481526020016005820160009054906101000a900460ff1615151515815260200160068201548152505090508060a001518015611133575080606001514210155b8015611143575080608001514211155b92505050919050565b60008060009054906101000a900473ffffffffffffffffffffffffffffffffffffffff1673ffffffffffffffffffffffffffffffffffffffff163373ffffffffffffffffffffffffffffffffffffffff16146111dd576040517f08c379a00000000000000000000000000000000000000000000000000000000081526004016111d49061352b565b60405180910390fd5b42831161121f576040517f08c379a000000000000000000000000000000000000000000000000000000000815260040161121690613597565b60405180910390fd5b828211611261576040517f08c379a000000000000000000000000000000000000000000000000000000000815260040161125890613629565b60405180910390fd5b60008551116112a5576040517f08c379a000000000000000000000000000000000000000000000000000000000815260040161129c90613695565b60405180910390fd5b600760008154809291906112b890613411565b9190505550600060075490506040518060e0016040528082815260200187815260200186815260200185815260200184815260200160011515815260200160008152506002600083815260200190815260200160002060008201518160000155602082015181600101908161132d9190613867565b5060408201518160020190816113439190613867565b50606082015181600301556080820151816004015560a08201518160050160006101000a81548160ff02191690831515021790555060c0820151816006015590505080600181905550807fe7a0aae5d733e07e246dea86213a1ac1b0aa8554bde889bb75c12752f44e53d98786866040516113c093929190613939565b60405180910390a280915050949350505050565b6060806040518060400160405280600581526020017f312e302e30000000000000000000000000000000000000000000000000000000815250604051806060016040528060278152602001613ef460279139915091509091565b60036020528160005260406000206020528060005260406000206000915091505080600001549080600101805461146490613488565b80601f016020809104026020016040519081016040528092919081815260200182805461149090613488565b80156114dd5780601f106114b2576101008083540402835291602001916114dd565b820191906000526020600020905b8154815290600101906020018083116114c057829003601f168201915b5050505050908060020180546114f290613488565b80601f016020809104026020016040519081016040528092919081815260200182805461151e90613488565b801561156b5780601f106115405761010080835404028352916020019161156b565b820191906000526020600020905b81548152906001019060200180831161154e57829003601f168201915b5050505050908060030154908060040160009054906101000a900460ff16905085565b60075481565b606080826000811180156115aa57506007548111155b6115e9576040517f08c379a00000000000000000000000000000000000000000000000000000000081526004016115e090613393565b60405180910390fd5b60006005600086815260200190815260200160002080548060200260200160405190810160405280929190818152602001828054801561164857602002820191906000526020600020905b815481526020019060010190808311611634575b505050505090506000815167ffffffffffffffff81111561166c5761166b612f13565b5b60405190808252806020026020018201604052801561169a5781602001602082028036833780820191505090505b50905060005b825181101561171d576003600088815260200190815260200160002060008483815181106116d1576116d06133b3565b5b60200260200101518152602001908152602001600020600301548282815181106116fe576116fd6133b3565b5b602002602001018181525050808061171590613411565b9150506116a0565b50818194509450505050915091565b60008054906101000a900473ffffffffffffffffffffffffffffffffffffffff1681565b6000806000808560008111801561176957506007548111155b6117a8576040517f08c379a000000000000000000000000000000000000000000000000000000000815260040161179f90613393565b60405180910390fd5b60006004600089815260200190815260200160002060008873ffffffffffffffffffffffffffffffffffffffff1673ffffffffffffffffffffffffffffffffffffffff1681526020019081526020016000206040518060800160405290816000820160009054906101000a900460ff161515151581526020016000820160019054906101000a900460ff1615151515815260200160018201548152602001600282015481525050905080600001518160200151826040015183606001519550955095509550505092959194509250565b60008054906101000a900473ffffffffffffffffffffffffffffffffffffffff1673ffffffffffffffffffffffffffffffffffffffff163373ffffffffffffffffffffffffffffffffffffffff1614611906576040517f08c379a00000000000000000000000000000000000000000000000000000000081526004016118fd9061352b565b60405180910390fd5b8160008111801561191957506007548111155b611958576040517f08c379a000000000000000000000000000000000000000000000000000000000815260040161194f90613393565b60405180910390fd5b6004600084815260200190815260200160002060008373ffffffffffffffffffffffffffffffffffffffff1673ffffffffffffffffffffffffffffffffffffffff16815260200190815260200160002060000160009054906101000a900460ff16156119f9576040517f08c379a00000000000000000000000000000000000000000000000000000000081526004016119f0906139c3565b60405180910390fd5b600073ffffffffffffffffffffffffffffffffffffffff168273ffffffffffffffffffffffffffffffffffffffff1603611a68576040517f08c379a0000000000000000000000000000000000000000000000000000000008152600401611a5f90613a2f565b60405180910390fd5b604051806080016040528060011515815260200160001515815260200160008152602001428152506004600085815260200190815260200160002060008473ffffffffffffffffffffffffffffffffffffffff1673ffffffffffffffffffffffffffffffffffffffff16815260200190815260200160002060008201518160000160006101000a81548160ff02191690831515021790555060208201518160000160016101000a81548160ff021916908315150217905550604082015181600101556060820151816002015590505060066000848152602001908152602001600020829080600181540180825580915050600190039060005260206000200160009091909190916101000a81548173ffffffffffffffffffffffffffffffffffffffff021916908373ffffffffffffffffffffffffffffffffffffffff1602179055508173ffffffffffffffffffffffffffffffffffffffff16837ff45b8429c36d478f9a6d081c4811a819b98aa5b608588bed9d406405cf28247360405160405180910390a3505050565b60015481565b60008054906101000a900473ffffffffffffffffffffffffffffffffffffffff1673ffffffffffffffffffffffffffffffffffffffff163373ffffffffffffffffffffffffffffffffffffffff1614611c88576040517f08c379a0000000000000000000000000000000000000000000000000000000008152600401611c7f9061352b565b60405180910390fd5b80600081118015611c9b57506007548111155b611cda576040517f08c379a0000000000000000000000000000000000000000000000000000000008152600401611cd190613393565b60405180910390fd5b60006002600084815260200190815260200160002060050160006101000a81548160ff021916908315150217905550817f562cd572b2ba3b666cd989fc4ca98419ec81e75f04528df9d9d76fdb7807ee7160405160405180910390a25050565b600060608060008060008087600081118015611d5857506007548111155b611d97576040517f08c379a0000000000000000000000000000000000000000000000000000000008152600401611d8e90613393565b60405180910390fd5b6000600260008b81526020019081526020016000206040518060e001604052908160008201548152602001600182018054611dd190613488565b80601f0160208091040260200160405190810160405280929190818152602001828054611dfd90613488565b8015611e4a5780601f10611e1f57610100808354040283529160200191611e4a565b820191906000526020600020905b815481529060010190602001808311611e2d57829003601f168201915b50505050508152602001600282018054611e6390613488565b80601f0160208091040260200160405190810160405280929190818152602001828054611e8f90613488565b8015611edc5780601f10611eb157610100808354040283529160200191611edc565b820191906000526020600020905b815481529060010190602001808311611ebf57829003601f168201915b5050505050815260200160038201548152602001600482015481526020016005820160009054906101000a900460ff161515151581526020016006820154815250509050806000015181602001518260400151836060015184608001518560a001518660c0015198509850985098509850985098505050919395979092949650565b6004602052816000526040600020602052806000526040600020600091509150508060000160009054906101000a900460ff16908060000160019054906101000a900460ff16908060010154908060020154905084565b60056020528160005260406000208181548110611fd157600080fd5b90600052602060002001600091509150505481565b81600081118015611ff957506007548111155b612038576040517f08c379a000000000000000000000000000000000000000000000000000000000815260040161202f90613393565b60405180910390fd5b826002600082815260200190815260200160002060050160009054906101000a900460ff1661209c576040517f08c379a000000000000000000000000000000000000000000000000000000000815260040161209390613a9b565b60405180910390fd5b60026000828152602001908152602001600020600301544210156120f5576040517f08c379a00000000000000000000000000000000000000000000000000000000081526004016120ec90613b07565b60405180910390fd5b600260008281526020019081526020016000206004015442111561214e576040517f08c379a000000000000000000000000000000000000000000000000000000000815260040161214590613b73565b60405180910390fd5b836004600082815260200190815260200160002060003373ffffffffffffffffffffffffffffffffffffffff1673ffffffffffffffffffffffffffffffffffffffff16815260200190815260200160002060000160009054906101000a900460ff166121ef576040517f08c379a00000000000000000000000000000000000000000000000000000000081526004016121e690613bdf565b60405180910390fd5b846004600082815260200190815260200160002060003373ffffffffffffffffffffffffffffffffffffffff1673ffffffffffffffffffffffffffffffffffffffff16815260200190815260200160002060000160019054906101000a900460ff1615612291576040517f08c379a000000000000000000000000000000000000000000000000000000000815260040161228890613c4b565b60405180910390fd5b8585600060036000848152602001908152602001600020600083815260200190815260200160002060000154036122fd576040517f08c379a00000000000000000000000000000000000000000000000000000000081526004016122f490613cb7565b60405180910390fd5b60036000838152602001908152602001600020600082815260200190815260200160002060040160009054906101000a900460ff16612371576040517f08c379a000000000000000000000000000000000000000000000000000000000815260040161236890613d23565b60405180910390fd5b6001600460008a815260200190815260200160002060003373ffffffffffffffffffffffffffffffffffffffff1673ffffffffffffffffffffffffffffffffffffffff16815260200190815260200160002060000160016101000a81548160ff02191690831515021790555086600460008a815260200190815260200160002060003373ffffffffffffffffffffffffffffffffffffffff1673ffffffffffffffffffffffffffffffffffffffff16815260200190815260200160002060010181905550600360008981526020019081526020016000206000888152602001908152602001600020600301600081548092919061246d90613411565b919050555060026000898152602001908152602001600020600601600081548092919061249990613411565b9190505550863373ffffffffffffffffffffffffffffffffffffffff16897f2acce567deca3aabf56327adbb4524bd5318936eaefa69e3a5208ffda0cfec0960405160405180910390a45050505050505050565b60008054906101000a900473ffffffffffffffffffffffffffffffffffffffff1673ffffffffffffffffffffffffffffffffffffffff163373ffffffffffffffffffffffffffffffffffffffff161461257b576040517f08c379a00000000000000000000000000000000000000000000000000000000081526004016125729061352b565b60405180910390fd5b8260008111801561258e57506007548111155b6125cd576040517f08c379a00000000000000000000000000000000000000000000000000000000081526004016125c490613393565b60405180910390fd5b60006003600086815260200190815260200160002060008581526020019081526020016000206000015403612637576040517f08c379a000000000000000000000000000000000000000000000000000000000815260040161262e90613cb7565b60405180910390fd5b8160036000868152602001908152602001600020600085815260200190815260200160002060040160006101000a81548160ff02191690831515021790555082847f2bb42803c7cb9ff71286ae87a1693ba570e490a2cc7497a917879f5f1bad03ff846040516126a79190612eee565b60405180910390a350505050565b60008054906101000a900473ffffffffffffffffffffffffffffffffffffffff1673ffffffffffffffffffffffffffffffffffffffff163373ffffffffffffffffffffffffffffffffffffffff1614612743576040517f08c379a000000000000000000000000000000000000000000000000000000000815260040161273a9061352b565b60405180910390fd5b600073ffffffffffffffffffffffffffffffffffffffff168173ffffffffffffffffffffffffffffffffffffffff16036127b2576040517f08c379a00000000000000000000000000000000000000000000000000000000081526004016127a990613d8f565b60405180910390fd5b806000806101000a81548173ffffffffffffffffffffffffffffffffffffffff021916908373ffffffffffffffffffffffffffffffffffffffff16021790555050565b60008054906101000a900473ffffffffffffffffffffffffffffffffffffffff1673ffffffffffffffffffffffffffffffffffffffff163373ffffffffffffffffffffffffffffffffffffffff1614612883576040517f08c379a000000000000000000000000000000000000000000000000000000000815260040161287a9061352b565b60405180910390fd5b8360008111801561289657506007548111155b6128d5576040517f08c379a00000000000000000000000000000000000000000000000000000000081526004016128cc90613393565b60405180910390fd5b6000600360008781526020019081526020016000206000868152602001908152602001600020600001541461293f576040517f08c379a000000000000000000000000000000000000000000000000000000000815260040161293690613dfb565b60405180910390fd5b6000835111612983576040517f08c379a000000000000000000000000000000000000000000000000000000000815260040161297a90613e67565b60405180910390fd5b60008251116129c7576040517f08c379a00000000000000000000000000000000000000000000000000000000081526004016129be90613ed3565b60405180910390fd5b6040518060a001604052808581526020018481526020018381526020016000815260200160011515815250600360008781526020019081526020016000206000868152602001908152602001600020600082015181600001556020820151816001019081612a359190613867565b506040820151816002019081612a4b9190613867565b506060820151816003015560808201518160040160006101000a81548160ff0219169083151502179055509050506005600086815260200190815260200160002084908060018154018082558091505060019003906000526020600020016000909190919091505583857f503cfceb0fb2178c5fb47ff394c816e4075abc8066c3dcb16d08a76847ee6e168585604051612ae69291906130dd565b60405180910390a35050505050565b6000604051905090565b600080fd5b600080fd5b6000819050919050565b612b1c81612b09565b8114612b2757600080fd5b50565b600081359050612b3981612b13565b92915050565b60008060408385031215612b5657612b55612aff565b5b6000612b6485828601612b2a565b9250506020612b7585828601612b2a565b9150509250929050565b600073ffffffffffffffffffffffffffffffffffffffff82169050919050565b6000612baa82612b7f565b9050919050565b612bba81612b9f565b82525050565b6000602082019050612bd56000830184612bb1565b92915050565b600060208284031215612bf157612bf0612aff565b5b6000612bff84828501612b2a565b91505092915050565b612c1181612b09565b82525050565b6000602082019050612c2c6000830184612c08565b92915050565b600081519050919050565b600082825260208201905092915050565b60005b83811015612c6c578082015181840152602081019050612c51565b60008484015250505050565b6000601f19601f8301169050919050565b6000612c9482612c32565b612c9e8185612c3d565b9350612cae818560208601612c4e565b612cb781612c78565b840191505092915050565b6000608082019050612cd76000830187612c08565b8181036020830152612ce98186612c89565b90508181036040830152612cfd8185612c89565b9050612d0c6060830184612c08565b95945050505050565b60008115159050919050565b612d2a81612d15565b82525050565b600060a082019050612d456000830188612c08565b8181036020830152612d578187612c89565b90508181036040830152612d6b8186612c89565b9050612d7a6060830185612c08565b612d876080830184612d21565b9695505050505050565b600081519050919050565b600082825260208201905092915050565b6000819050602082019050919050565b612dc681612b09565b82525050565b6000612dd88383612dbd565b60208301905092915050565b6000602082019050919050565b6000612dfc82612d91565b612e068185612d9c565b9350612e1183612dad565b8060005b83811015612e42578151612e298882612dcc565b9750612e3483612de4565b925050600181019050612e15565b5085935050505092915050565b60006020820190508181036000830152612e698184612df1565b905092915050565b600060e082019050612e86600083018a612c08565b8181036020830152612e988189612c89565b90508181036040830152612eac8188612c89565b9050612ebb6060830187612c08565b612ec86080830186612c08565b612ed560a0830185612d21565b612ee260c0830184612c08565b98975050505050505050565b6000602082019050612f036000830184612d21565b92915050565b600080fd5b600080fd5b7f4e487b7100000000000000000000000000000000000000000000000000000000600052604160045260246000fd5b612f4b82612c78565b810181811067ffffffffffffffff82111715612f6a57612f69612f13565b5b80604052505050565b6000612f7d612af5565b9050612f898282612f42565b919050565b600067ffffffffffffffff821115612fa957612fa8612f13565b5b612fb282612c78565b9050602081019050919050565b82818337600083830152505050565b6000612fe1612fdc84612f8e565b612f73565b905082815260208101848484011115612ffd57612ffc612f0e565b5b613008848285612fbf565b509392505050565b600082601f83011261302557613024612f09565b5b8135613035848260208601612fce565b91505092915050565b6000806000806080858703121561305857613057612aff565b5b600085013567ffffffffffffffff81111561307657613075612b04565b5b61308287828801613010565b945050602085013567ffffffffffffffff8111156130a3576130a2612b04565b5b6130af87828801613010565b93505060406130c087828801612b2a565b92505060606130d187828801612b2a565b91505092959194509250565b600060408201905081810360008301526130f78185612c89565b9050818103602083015261310b8184612c89565b90509392505050565b6000604082019050818103600083015261312e8185612df1565b905081810360208301526131428184612df1565b90509392505050565b61315481612b9f565b811461315f57600080fd5b50565b6000813590506131718161314b565b92915050565b6000806040838503121561318e5761318d612aff565b5b600061319c85828601612b2a565b92505060206131ad85828601613162565b9150509250929050565b60006080820190506131cc6000830187612d21565b6131d96020830186612d21565b6131e66040830185612c08565b6131f36060830184612c08565b95945050505050565b61320581612d15565b811461321057600080fd5b50565b600081359050613222816131fc565b92915050565b60008060006060848603121561324157613240612aff565b5b600061324f86828701612b2a565b935050602061326086828701612b2a565b925050604061327186828701613213565b9150509250925092565b60006020828403121561329157613290612aff565b5b600061329f84828501613162565b91505092915050565b600080600080608085870312156132c2576132c1612aff565b5b60006132d087828801612b2a565b94505060206132e187828801612b2a565b935050604085013567ffffffffffffffff81111561330257613301612b04565b5b61330e87828801613010565b925050606085013567ffffffffffffffff81111561332f5761332e612b04565b5b61333b87828801613010565b91505092959194509250565b7f456c656374696f6e20646f6573206e6f74206578697374000000000000000000600082015250565b600061337d601783612c3d565b915061338882613347565b602082019050919050565b600060208201905081810360008301526133ac81613370565b9050919050565b7f4e487b7100000000000000000000000000000000000000000000000000000000600052603260045260246000fd5b7f4e487b7100000000000000000000000000000000000000000000000000000000600052601160045260246000fd5b600061341c82612b09565b91507fffffffffffffffffffffffffffffffffffffffffffffffffffffffffffffffff820361344e5761344d6133e2565b5b600182019050919050565b7f4e487b7100000000000000000000000000000000000000000000000000000000600052602260045260246000fd5b600060028204905060018216806134a057607f821691505b6020821081036134b3576134b2613459565b5b50919050565b7f4f6e6c79206f776e65722063616e20706572666f726d2074686973206163746960008201527f6f6e000000000000000000000000000000000000000000000000000000000000602082015250565b6000613515602283612c3d565b9150613520826134b9565b604082019050919050565b6000602082019050818103600083015261354481613508565b9050919050565b7f53746172742074696d65206d75737420626520696e2074686520667574757265600082015250565b6000613581602083612c3d565b915061358c8261354b565b602082019050919050565b600060208201905081810360008301526135b081613574565b9050919050565b7f456e642074696d65206d7573742062652061667465722073746172742074696d60008201527f6500000000000000000000000000000000000000000000000000000000000000602082015250565b6000613613602183612c3d565b915061361e826135b7565b604082019050919050565b6000602082019050818103600083015261364281613606565b9050919050565b7f456c656374696f6e206e616d652063616e6e6f7420626520656d707479000000600082015250565b600061367f601d83612c3d565b915061368a82613649565b602082019050919050565b600060208201905081810360008301526136ae81613672565b9050919050565b60008190508160005260206000209050919050565b60006020601f8301049050919050565b60008160020a8302905092915050565b60006008830261371a7fffffffffffffffffffffffffffffffffffffffffffffffffffffffffffffffff826136da565b61372486836136da565b95508019841693508086168417925050509392505050565b6000819050919050565b600061376161375c61375784612b09565b61373c565b612b09565b9050919050565b6000819050919050565b61377b83613746565b61378f61378782613768565b8484546136ea565b825550505050565b600090565b6137a4613797565b6137af818484613772565b505050565b5b818110156137d3576137c860008261379c565b6001810190506137b5565b5050565b601f821115613818576137e9816136b5565b6137f2846136ca565b81016020851015613801578190505b61381561380d856136ca565b8301826137b4565b50505b505050565b60008160020a8304905092915050565b600061383e6000198460080261381d565b1980831691505092915050565b6000613857838361382d565b9150826002028217905092915050565b61387082612c32565b67ffffffffffffffff81111561388957613888612f13565b5b6138938254613488565b61389e8282856137d7565b600060209050601f8311600181146138d157600084156138bf578287015190505b6138c9858261384b565b865550613931565b601f1984166138df866136b5565b60005b82811015613907578489015182556001820191506020850194506020810190506138e2565b868310156139245784890151613920601f89168261382d565b8355505b6001600288020188555050505b505050505050565b600060608201905081810360008301526139538186612c89565b90506139626020830185612c08565b61396f6040830184612c08565b949350505050565b7f566f74657220697320616c726561647920726567697374657265640000000000600082015250565b60006139ad601b83612c3d565b91506139b882613977565b602082019050919050565b600060208201905081810360008301526139dc816139a0565b9050919050565b7f496e76616c696420766f74657220616464726573730000000000000000000000600082015250565b6000613a19601583612c3d565b9150613a24826139e3565b602082019050919050565b60006020820190508181036000830152613a4881613a0c565b9050919050565b7f456c656374696f6e206973206e6f742061637469766500000000000000000000600082015250565b6000613a85601683612c3d565b9150613a9082613a4f565b602082019050919050565b60006020820190508181036000830152613ab481613a78565b9050919050565b7f456c656374696f6e20686173206e6f7420737461727465642079657400000000600082015250565b6000613af1601c83612c3d565b9150613afc82613abb565b602082019050919050565b60006020820190508181036000830152613b2081613ae4565b9050919050565b7f456c656374696f6e2068617320656e6465640000000000000000000000000000600082015250565b6000613b5d601283612c3d565b9150613b6882613b27565b602082019050919050565b60006020820190508181036000830152613b8c81613b50565b9050919050565b7f596f7520617265206e6f74207265676973746572656420746f20766f74650000600082015250565b6000613bc9601e83612c3d565b9150613bd482613b93565b602082019050919050565b60006020820190508181036000830152613bf881613bbc565b9050919050565b7f596f75206861766520616c726561647920766f74656400000000000000000000600082015250565b6000613c35601683612c3d565b9150613c4082613bff565b602082019050919050565b60006020820190508181036000830152613c6481613c28565b9050919050565b7f43616e64696461746520646f6573206e6f742065786973740000000000000000600082015250565b6000613ca1601883612c3d565b9150613cac82613c6b565b602082019050919050565b60006020820190508181036000830152613cd081613c94565b9050919050565b7f43616e646964617465206973206e6f7420616374697665000000000000000000600082015250565b6000613d0d601783612c3d565b9150613d1882613cd7565b602082019050919050565b60006020820190508181036000830152613d3c81613d00565b9050919050565b7f4e6577206f776e65722063616e6e6f74206265207a65726f2061646472657373600082015250565b6000613d79602083612c3d565b9150613d8482613d43565b602082019050919050565b60006020820190508181036000830152613da881613d6c565b9050919050565b7f43616e64696461746520494420616c7265616479206578697374730000000000600082015250565b6000613de5601b83612c3d565b9150613df082613daf565b602082019050919050565b60006020820190508181036000830152613e1481613dd8565b9050919050565b7f43616e646964617465206e616d652063616e6e6f7420626520656d7074790000600082015250565b6000613e51601e83612c3d565b9150613e5c82613e1b565b602082019050919050565b60006020820190508181036000830152613e8081613e44565b9050919050565b7f5061727479206e616d652063616e6e6f7420626520656d707479000000000000600082015250565b6000613ebd601a83612c3d565b9150613ec882613e87565b602082019050919050565b60006020820190508181036000830152613eec81613eb0565b905091905056fe426c6f636b636861696e20566f74696e672053797374656d20536d61727420436f6e7472616374a2646970667358221220cfc210afa9a5aaeffc4052a55bb4773119d47f032095b36ee5406b5d8a32879c64736f6c63430008130033",
  "immutableReferences": {},
  "source": "// SPDX-License-Identifier: MIT\r\npragma solidity ^0.8.19;\r\n\r\n/**\r\n * @title Voting\r\n * @dev Implements voting process with security features\r\n */\r\ncontract Voting {\r\n    struct Candidate {\r\n        uint256 id;\r\n        string name;\r\n        string party;\r\n        uint256 voteCount;\r\n        bool isActive;\r\n    }\r\n\r\n    struct Voter {\r\n        bool isRegistered;\r\n        bool hasVoted;\r\n        uint256 votedFor;\r\n        uint256 registrationTime;\r\n    }\r\n\r\n    struct Election {\r\n        uint256 id;\r\n        string name;\r\n        string description;\r\n        uint256 startTime;\r\n        uint256 endTime;\r\n        bool isActive;\r\n        uint256 totalVotes;\r\n    }\r\n\r\n    address public owner;\r\n    uint256 public currentElectionId;\r\n    \r\n    mapping(uint256 => Election) public elections;\r\n    mapping(uint256 => mapping(uint256 => Candidate)) public candidates; // electionId => candidateId => Candidate\r\n    mapping(uint256 => mapping(address => Voter)) public voters; // electionId => voterAddress => Voter\r\n    mapping(uint256 => uint256[]) public electionCandidates; // electionId => candidateIds array\r\n    mapping(uint256 => address[]) public electionVoters; // electionId => voter addresses\r\n    \r\n    uint256 public totalElections;\r\n    \r\n    event ElectionCreated(uint256 indexed electionId, string name, uint256 startTime, uint256 endTime);\r\n    event CandidateAdded(uint256 indexed electionId, uint256 indexed candidateId, string name, string party);\r\n    event VoterRegistered(uint256 indexed electionId, address indexed voter);\r\n    event VoteCast(uint256 indexed electionId, address indexed voter, uint256 indexed candidateId);\r\n    event ElectionStarted(uint256 indexed electionId);\r\n    event ElectionEnded(uint256 indexed electionId);\r\n    event CandidateStatusChanged(uint256 indexed electionId, uint256 indexed candidateId, bool isActive);\r\n\r\n    modifier onlyOwner() {\r\n        require(msg.sender == owner, \"Only owner can perform this action\");\r\n        _;\r\n    }\r\n\r\n    modifier electionExists(uint256 _electionId) {\r\n        require(_electionId > 0 && _electionId <= totalElections, \"Election does not exist\");\r\n        _;\r\n    }\r\n\r\n    modifier electionActive(uint256 _electionId) {\r\n        require(elections[_electionId].isActive, \"Election is not active\");\r\n        require(block.timestamp >= elections[_electionId].startTime, \"Election has not started yet\");\r\n        require(block.timestamp <= elections[_electionId].endTime, \"Election has ended\");\r\n        _;\r\n    }\r\n\r\n    modifier hasNotVoted(uint256 _electionId) {\r\n        require(!voters[_electionId][msg.sender].hasVoted, \"You have already voted\");\r\n        _;\r\n    }\r\n\r\n    modifier isRegisteredVoter(uint256 _electionId) {\r\n        require(voters[_electionId][msg.sender].isRegistered, \"You are not registered to vote\");\r\n        _;\r\n    }\r\n\r\n    modifier validCandidate(uint256 _electionId, uint256 _candidateId) {\r\n        require(candidates[_electionId][_candidateId].id != 0, \"Candidate does not exist\");\r\n        require(candidates[_electionId][_candidateId].isActive, \"Candidate is not active\");\r\n        _;\r\n    }\r\n\r\n    constructor() {\r\n        owner = msg.sender;\r\n        totalElections = 0;\r\n        currentElectionId = 0;\r\n    }\r\n\r\n    /**\r\n     * @dev Create a new election\r\n     */\r\n    function createElection(\r\n        string memory _name,\r\n        string memory _description,\r\n        uint256 _startTime,\r\n        uint256 _endTime\r\n    ) public onlyOwner returns (uint256) {\r\n        require(_startTime > block.timestamp, \"Start time must be in the future\");\r\n        require(_endTime > _startTime, \"End time must be after start time\");\r\n        require(bytes(_name).length > 0, \"Election name cannot be empty\");\r\n\r\n        totalElections++;\r\n        uint256 electionId = totalElections;\r\n\r\n        elections[electionId] = Election({\r\n            id: electionId,\r\n            name: _name,\r\n            description: _description,\r\n            startTime: _startTime,\r\n            endTime: _endTime,\r\n            isActive: true,\r\n            totalVotes: 0\r\n        });\r\n\r\n        currentElectionId = electionId;\r\n\r\n        emit ElectionCreated(electionId, _name, _startTime, _endTime);\r\n        return electionId;\r\n    }\r\n\r\n    /**\r\n     * @dev Add a candidate to an election\r\n     */\r\n    function addCandidate(\r\n        uint256 _electionId,\r\n        uint256 _candidateId,\r\n        string memory _name,\r\n        string memory _party\r\n    ) public onlyOwner electionExists(_electionId) {\r\n        require(candidates[_electionId][_candidateId].id == 0, \"Candidate ID already exists\");\r\n        require(bytes(_name).length > 0, \"Candidate name cannot be empty\");\r\n        require(bytes(_party).length > 0, \"Party name cannot be empty\");\r\n\r\n        candidates[_electionId][_candidateId] = Candidate({\r\n            id: _candidateId,\r\n            name: _name,\r\n            party: _party,\r\n            voteCount: 0,\r\n            isActive: true\r\n        });\r\n\r\n        electionCandidates[_electionId].push(_candidateId);\r\n\r\n        emit CandidateAdded(_electionId, _candidateId, _name, _party);\r\n    }\r\n\r\n    /**\r\n     * @dev Register a voter for an election\r\n     */\r\n    function registerVoter(uint256 _electionId, address _voter) public onlyOwner electionExists(_electionId) {\r\n        require(!voters[_electionId][_voter].isRegistered, \"Voter is already registered\");\r\n        require(_voter != address(0), \"Invalid voter address\");\r\n\r\n        voters[_electionId][_voter] = Voter({\r\n            isRegistered: true,\r\n            hasVoted: false,\r\n            votedFor: 0,\r\n            registrationTime: block.timestamp\r\n        });\r\n\r\n        electionVoters[_electionId].push(_voter);\r\n\r\n        emit VoterRegistered(_electionId, _voter);\r\n    }\r\n\r\n    /**\r\n     * @dev Cast a vote\r\n     */\r\n    function vote(uint256 _electionId, uint256 _candidateId) \r\n        public \r\n        electionExists(_electionId)\r\n        electionActive(_electionId)\r\n        isRegisteredVoter(_electionId)\r\n        hasNotVoted(_electionId)\r\n        validCandidate(_electionId, _candidateId)\r\n    {\r\n        voters[_electionId][msg.sender].hasVoted = true;\r\n        voters[_electionId][msg.sender].votedFor = _candidateId;\r\n\r\n        candidates[_electionId][_candidateId].voteCount++;\r\n        elections[_electionId].totalVotes++;\r\n\r\n        emit VoteCast(_electionId, msg.sender, _candidateId);\r\n    }\r\n\r\n    /**\r\n     * @dev Get candidate information\r\n     */\r\n    function getCandidate(uint256 _electionId, uint256 _candidateId) \r\n        public \r\n        view \r\n        electionExists(_electionId)\r\n        returns (uint256 id, string memory name, string memory party, uint256 voteCount, bool isActive) \r\n    {\r\n        Candidate memory candidate = candidates[_electionId][_candidateId];\r\n        return (candidate.id, candidate.name, candidate.party, candidate.voteCount, candidate.isActive);\r\n    }\r\n\r\n    /**\r\n     * @dev Get voter information\r\n     */\r\n    function getVoter(uint256 _electionId, address _voter) \r\n        public \r\n        view \r\n        electionExists(_electionId)\r\n        returns (bool isRegistered, bool hasVoted, uint256 votedFor, uint256 registrationTime) \r\n    {\r\n        Voter memory voter = voters[_electionId][_voter];\r\n        return (voter.isRegistered, voter.hasVoted, voter.votedFor, voter.registrationTime);\r\n    }\r\n\r\n    /**\r\n     * @dev Get election information\r\n     */\r\n    function getElection(uint256 _electionId) \r\n        public \r\n        view \r\n        electionExists(_electionId)\r\n        returns (uint256 id, string memory name, string memory description, uint256 startTime, uint256 endTime, bool isActive, uint256 totalVotes) \r\n    {\r\n        Election memory election = elections[_electionId];\r\n        return (election.id, election.name, election.description, election.startTime, election.endTime, election.isActive, election.totalVotes);\r\n    }\r\n\r\n    /**\r\n     * @dev Get all candidates for an election\r\n     */\r\n    function getElectionCandidates(uint256 _electionId) \r\n        public \r\n        view \r\n        electionExists(_electionId)\r\n        returns (uint256[] memory) \r\n    {\r\n        return electionCandidates[_electionId];\r\n    }\r\n\r\n    /**\r\n     * @dev Get election results\r\n     */\r\n    function getResults(uint256 _electionId) \r\n        public \r\n        view \r\n        electionExists(_electionId)\r\n        returns (uint256[] memory candidateIds, uint256[] memory voteCounts) \r\n    {\r\n        uint256[] memory candidateList = electionCandidates[_electionId];\r\n        uint256[] memory votes = new uint256[](candidateList.length);\r\n\r\n        for (uint256 i = 0; i < candidateList.length; i++) {\r\n            votes[i] = candidates[_electionId][candidateList[i]].voteCount;\r\n        }\r\n\r\n        return (candidateList, votes);\r\n    }\r\n\r\n    /**\r\n     * @dev Get winning candidate\r\n     */\r\n    function getWinner(uint256 _electionId) \r\n        public \r\n        view \r\n        electionExists(_electionId)\r\n        returns (uint256 winnerId, string memory winnerName, string memory winnerParty, uint256 winnerVotes) \r\n    {\r\n        uint256[] memory candidateList = electionCandidates[_electionId];\r\n        uint256 maxVotes = 0;\r\n        uint256 winningCandidateId = 0;\r\n\r\n        for (uint256 i = 0; i < candidateList.length; i++) {\r\n            uint256 candidateId = candidateList[i];\r\n            if (candidates[_electionId][candidateId].voteCount > maxVotes && candidates[_electionId][candidateId].isActive) {\r\n                maxVotes = candidates[_electionId][candidateId].voteCount;\r\n                winningCandidateId = candidateId;\r\n            }\r\n        }\r\n\r\n        if (winningCandidateId != 0) {\r\n            Candidate memory winner = candidates[_electionId][winningCandidateId];\r\n            return (winner.id, winner.name, winner.party, winner.voteCount);\r\n        }\r\n\r\n        return (0, \"\", \"\", 0);\r\n    }\r\n\r\n    /**\r\n     * @dev Check if voting period is active\r\n     */\r\n    function isVotingActive(uint256 _electionId) public view electionExists(_electionId) returns (bool) {\r\n        Election memory election = elections[_electionId];\r\n        return election.isActive && \r\n               block.timestamp >= election.startTime && \r\n               block.timestamp <= election.endTime;\r\n    }\r\n\r\n    /**\r\n     * @dev End an election (only owner)\r\n     */\r\n    function endElection(uint256 _electionId) public onlyOwner electionExists(_electionId) {\r\n        elections[_electionId].isActive = false;\r\n        emit ElectionEnded(_electionId);\r\n    }\r\n\r\n    /**\r\n     * @dev Activate/Deactivate a candidate (only owner)\r\n     */\r\n    function setCandidateStatus(uint256 _electionId, uint256 _candidateId, bool _isActive) \r\n        public \r\n        onlyOwner \r\n        electionExists(_electionId) \r\n    {\r\n        require(candidates[_electionId][_candidateId].id != 0, \"Candidate does not exist\");\r\n        candidates[_electionId][_candidateId].isActive = _isActive;\r\n        emit CandidateStatusChanged(_electionId, _candidateId, _isActive);\r\n    }\r\n\r\n    /**\r\n     * @dev Get total number of registered voters for an election\r\n     */\r\n    function getTotalVoters(uint256 _electionId) public view electionExists(_electionId) returns (uint256) {\r\n        return electionVoters[_electionId].length;\r\n    }\r\n\r\n    /**\r\n     * @dev Get total number of votes cast in an election\r\n     */\r\n    function getTotalVotes(uint256 _electionId) public view electionExists(_electionId) returns (uint256) {\r\n        return elections[_electionId].totalVotes;\r\n    }\r\n\r\n    /**\r\n     * @dev Transfer ownership (only current owner)\r\n     */\r\n    function transferOwnership(address _newOwner) public onlyOwner {\r\n        require(_newOwner != address(0), \"New owner cannot be zero address\");\r\n        owner = _newOwner;\r\n    }\r\n\r\n    /**\r\n     * @dev Emergency function to pause all elections\r\n     */\r\n    function emergencyPause() public onlyOwner {\r\n        // Implementation would depend on specific requirements\r\n        // This is a placeholder for emergency functionality\r\n    }\r\n\r\n    /**\r\n     * @dev Get contract version and info\r\n     */\r\n    function getContractInfo() public pure returns (string memory version, string memory description) {\r\n        return (\"1.0.0\", \"Blockchain Voting System Smart Contract\");\r\n    }\r\n}",
  "sourcePath": "C:\\Users\\yuvra\\OneDrive\\Desktop\\transblock\\contracts\\Voting.sol",
  "compiler": {
    "name": "solc",
    "version": "0.8.19+commit.7dd6d404.Emscripten.clang"
  },
  "schemaVersion": "3.4.16",
  "updatedAt": "2025-09-30T17:28:05.800Z",
  "networkType": "ethereum",
  "devdoc": {
    "details": "Implements voting process with security features",
    "kind": "dev",
    "methods": {
      "addCandidate(uint256,uint256,string,string)": {
        "details": "Add a candidate to an election"
      },
      "createElection(string,string,uint256,uint256)": {
        "details": "Create a new election"
      },
      "emergencyPause()": {
        "details": "Emergency function to pause all elections"
      },
      "endElection(uint256)": {
        "details": "End an election (only owner)"
      },
      "getCandidate(uint256,uint256)": {
        "details": "Get candidate information"
      },
      "getContractInfo()": {
        "details": "Get contract version and info"
      },
      "getElection(uint256)": {
        "details": "Get election information"
      },
      "getElectionCandidates(uint256)": {
        "details": "Get all candidates for an election"
      },
      "getResults(uint256)": {
        "details": "Get election results"
      },
      "getTotalVoters(uint256)": {
        "details": "Get total number of registered voters for an election"
      },
      "getTotalVotes(uint256)": {
        "details": "Get total number of votes cast in an election"
      },
      "getVoter(uint256,address)": {
        "details": "Get voter information"
      },
      "getWinner(uint256)": {
        "details": "Get winning candidate"
      },
      "isVotingActive(uint256)": {
        "details": "Check if voting period is active"
      },
      "registerVoter(uint256,address)": {
        "details": "Register a voter for an election"
      },
      "setCandidateStatus(uint256,uint256,bool)": {
        "details": "Activate/Deactivate a candidate (only owner)"
      },
      "transferOwnership(address)": {
        "details": "Transfer ownership (only current owner)"
      },
      "vote(uint256,uint256)": {
        "details": "Cast a vote"
      }
    },
    "title": "Voting",
    "version": 1
  },
  "userdoc": {
    "kind": "user",
    "methods": {},
    "version": 1
  }
}