{
  "contractName": "Voting",
  "abi": [
    {
      "inputs": [],
      "stateMutability": "nonpayable",
      "type": "constructor"
    },
    {
      "anonymous": false,
      "inputs": [
        {
          "indexed": true,
          "internalType": "uint256",
          "name": "electionId",
          "type": "uint256"
        },
        {
          "indexed": true,
          "internalType": "uint256",
          "name": "candidateId",
          "type": "uint256"
        },
        {
          "indexed": false,
          "internalType": "string",
          "name": "name",
          "type": "string"
        },
        {
          "indexed": false,
          "internalType": "string",
          "name": "party",
          "type": "string"
        }
      ],
      "name": "CandidateAdded",
      "type": "event"
    },
    {
      "anonymous": false,
      "inputs": [
        {
          "indexed": true,
          "internalType": "uint256",
          "name": "electionId",
          "type": "uint256"
        },
        {
          "indexed": false,
          "internalType": "string",
          "name": "name",
          "type": "string"
        },
        {
          "indexed": false,
          "internalType": "uint256",
          "name": "startTime",
          "type": "uint256"
        },
        {
          "indexed": false,
          "internalType": "uint256",
          "name": "endTime",
          "type": "uint256"
        }
      ],
      "name": "ElectionCreated",
      "type": "event"
    },
    {
      "anonymous": false,
      "inputs": [
        {
          "indexed": true,
          "internalType": "uint256",
          "name": "electionId",
          "type": "uint256"
        },
        {
          "indexed": true,
          "internalType": "address",
          "name": "voter",
          "type": "address"
        },
        {
          "indexed": true,
          "internalType": "uint256",
          "name": "candidateId",
          "type": "uint256"
        }
      ],
      "name": "VoteCast",
      "type": "event"
    },
    {
      "anonymous": false,
      "inputs": [
        {
          "indexed": true,
          "internalType": "uint256",
          "name": "electionId",
          "type": "uint256"
        },
        {
          "indexed": true,
          "internalType": "address",
          "name": "voter",
          "type": "address"
        }
      ],
      "name": "VoterRegistered",
      "type": "event"
    },
    {
      "inputs": [],
      "name": "electionCount",
      "outputs": [
        {
          "internalType": "uint256",
          "name": "",
          "type": "uint256"
        }
      ],
      "stateMutability": "view",
      "type": "function",
      "constant": true
    },
    {
      "inputs": [
        {
          "internalType": "uint256",
          "name": "",
          "type": "uint256"
        }
      ],
      "name": "elections",
      "outputs": [
        {
          "internalType": "uint256",
          "name": "id",
          "type": "uint256"
        },
        {
          "internalType": "string",
          "name": "name",
          "type": "string"
        },
        {
          "internalType": "string",
          "name": "description",
          "type": "string"
        },
        {
          "internalType": "uint256",
          "name": "startTime",
          "type": "uint256"
        },
        {
          "internalType": "uint256",
          "name": "endTime",
          "type": "uint256"
        },
        {
          "internalType": "uint256",
          "name": "totalVotes",
          "type": "uint256"
        },
        {
          "internalType": "bool",
          "name": "isActive",
          "type": "bool"
        }
      ],
      "stateMutability": "view",
      "type": "function",
      "constant": true
    },
    {
      "inputs": [],
      "name": "owner",
      "outputs": [
        {
          "internalType": "address",
          "name": "",
          "type": "address"
        }
      ],
      "stateMutability": "view",
      "type": "function",
      "constant": true
    },
    {
      "inputs": [
        {
          "internalType": "string",
          "name": "_name",
          "type": "string"
        },
        {
          "internalType": "string",
          "name": "_description",
          "type": "string"
        },
        {
          "internalType": "uint256",
          "name": "_startTime",
          "type": "uint256"
        },
        {
          "internalType": "uint256",
          "name": "_endTime",
          "type": "uint256"
        }
      ],
      "name": "createElection",
      "outputs": [
        {
          "internalType": "uint256",
          "name": "",
          "type": "uint256"
        }
      ],
      "stateMutability": "nonpayable",
      "type": "function"
    },
    {
      "inputs": [
        {
          "internalType": "uint256",
          "name": "_electionId",
          "type": "uint256"
        },
        {
          "internalType": "uint256",
          "name": "_candidateId",
          "type": "uint256"
        },
        {
          "internalType": "string",
          "name": "_name",
          "type": "string"
        },
        {
          "internalType": "string",
          "name": "_party",
          "type": "string"
        }
      ],
      "name": "addCandidate",
      "outputs": [],
      "stateMutability": "nonpayable",
      "type": "function"
    },
    {
      "inputs": [
        {
          "internalType": "uint256",
          "name": "_electionId",
          "type": "uint256"
        },
        {
          "internalType": "address",
          "name": "_voterAddress",
          "type": "address"
        }
      ],
      "name": "registerVoter",
      "outputs": [],
      "stateMutability": "nonpayable",
      "type": "function"
    },
    {
      "inputs": [
        {
          "internalType": "uint256",
          "name": "_electionId",
          "type": "uint256"
        },
        {
          "internalType": "uint256",
          "name": "_candidateId",
          "type": "uint256"
        }
      ],
      "name": "vote",
      "outputs": [],
      "stateMutability": "nonpayable",
      "type": "function"
    },
    {
      "inputs": [
        {
          "internalType": "uint256",
          "name": "_electionId",
          "type": "uint256"
        }
      ],
      "name": "getResults",
      "outputs": [
        {
          "internalType": "uint256[]",
          "name": "",
          "type": "uint256[]"
        },
        {
          "internalType": "uint256[]",
          "name": "",
          "type": "uint256[]"
        }
      ],
      "stateMutability": "view",
      "type": "function",
      "constant": true
    },
    {
      "inputs": [
        {
          "internalType": "uint256",
          "name": "_electionId",
          "type": "uint256"
        }
      ],
      "name": "getWinner",
      "outputs": [
        {
          "internalType": "uint256",
          "name": "",
          "type": "uint256"
        },
        {
          "internalType": "string",
          "name": "",
          "type": "string"
        },
        {
          "internalType": "string",
          "name": "",
          "type": "string"
        },
        {
          "internalType": "uint256",
          "name": "",
          "type": "uint256"
        }
      ],
      "stateMutability": "view",
      "type": "function",
      "constant": true
    },
    {
      "inputs": [
        {
          "internalType": "uint256",
          "name": "_electionId",
          "type": "uint256"
        },
        {
          "internalType": "uint256",
          "name": "_candidateId",
          "type": "uint256"
        }
      ],
      "name": "getCandidate",
      "outputs": [
        {
          "internalType": "uint256",
          "name": "",
          "type": "uint256"
        },
        {
          "internalType": "string",
          "name": "",
          "type": "string"
        },
        {
          "internalType": "string",
          "name": "",
          "type": "string"
        },
        {
          "internalType": "uint256",
          "name": "",
          "type": "uint256"
        },
        {
          "internalType": "bool",
          "name": "",
          "type": "bool"
        }
      ],
      "stateMutability": "view",
      "type": "function",
      "constant": true
    },
    {
      "inputs": [
        {
          "internalType": "uint256",
          "name": "_electionId",
          "type": "uint256"
        },
        {
          "internalType": "address",
          "name": "_voterAddress",
          "type": "address"
        }
      ],
      "name": "getVoter",
      "outputs": [
        {
          "internalType": "bool",
          "name": "",
          "type": "bool"
        },
        {
          "internalType": "bool",
          "name": "",
          "type": "bool"
        },
        {
          "internalType": "uint256",
          "name": "",
          "type": "uint256"
        },
        {
          "internalType": "uint256",
          "name": "",
          "type": "uint256"
        }
      ],
      "stateMutability": "view",
      "type": "function",
      "constant": true
    },
    {
      "inputs": [
        {
          "internalType": "uint256",
          "name": "_electionId",
          "type": "uint256"
        }
      ],
      "name": "isVotingActive",
      "outputs": [
        {
          "internalType": "bool",
          "name": "",
          "type": "bool"
        }
      ],
      "stateMutability": "view",
      "type": "function",
      "constant": true
    },
    {
      "inputs": [
        {
          "internalType": "uint256",
          "name": "_electionId",
          "type": "uint256"
        }
      ],
      "name": "endElection",
      "outputs": [],
      "stateMutability": "nonpayable",
      "type": "function"
    }
  ],
  "bytecode": "0x608060405234801561001057600080fd5b50336000806101000a81548173ffffffffffffffffffffffffffffffffffffffff021916908373ffffffffffffffffffffffffffffffffffffffff16021790555060006001819055506128fa806100686000396000f3fe608060405234801561001057600080fd5b50600436106100ec576000357c0100000000000000000000000000000000000000000000000000000000900480638da5cb5b116100a9578063997d283011610083578063997d28301461028c5780639c98bcbb146102aa578063b384abef146102c6578063f46d7b34146102e2576100ec565b80638da5cb5b1461021f5780638f47b1461461023d57806394c790bb14610270576100ec565b80634129b2c9146100f15780634bd46448146101245780635e6fef0114610158578063772744b51461018e5780637ad36e84146101be57806381a60c0d146101ee575b600080fd5b61010b60048036038101906101069190611866565b6102fe565b60405161011b9493929190611932565b60405180910390f35b61013e60048036038101906101399190611985565b6105c1565b60405161014f9594939291906119e0565b60405180910390f35b610172600480360381019061016d9190611866565b61079e565b6040516101859796959493929190611a41565b60405180910390f35b6101a860048036038101906101a39190611866565b6108fd565b6040516101b59190611abe565b60405180910390f35b6101d860048036038101906101d39190611c0e565b6109a3565b6040516101e59190611cad565b60405180910390f35b61020860048036038101906102039190611866565b610b5b565b604051610216929190611d86565b60405180910390f35b610227610d1a565b6040516102349190611dfe565b60405180910390f35b61025760048036038101906102529190611e45565b610d3e565b6040516102679493929190611e85565b60405180910390f35b61028a60048036038101906102859190611e45565b610e34565b005b61029461112c565b6040516102a19190611cad565b60405180910390f35b6102c460048036038101906102bf9190611866565b611132565b005b6102e060048036038101906102db9190611985565b611245565b005b6102fc60048036038101906102f79190611eca565b6115ae565b005b600060608060008460008111801561031857506001548111155b610357576040517f08c379a000000000000000000000000000000000000000000000000000000000815260040161034e90611fb5565b60405180910390fd5b600060026000888152602001908152602001600020905060008160080180549050116103b8576040517f08c379a00000000000000000000000000000000000000000000000000000000081526004016103af90612021565b60405180910390fd5b600080826008016000815481106103d2576103d1612041565b5b9060005260206000200154905060005b836008018054905081101561046957600084600801828154811061040957610408612041565b5b9060005260206000200154905083856007016000838152602001908152602001600020600301541115610455578460070160008281526020019081526020016000206003015493508092505b5080806104619061209f565b9150506103e2565b50600083600701600083815260200190815260200160002090508060000154816001018260020183600301548280546104a190612116565b80601f01602080910402602001604051908101604052809291908181526020018280546104cd90612116565b801561051a5780601f106104ef5761010080835404028352916020019161051a565b820191906000526020600020905b8154815290600101906020018083116104fd57829003601f168201915b5050505050925081805461052d90612116565b80601f016020809104026020016040519081016040528092919081815260200182805461055990612116565b80156105a65780601f1061057b576101008083540402835291602001916105a6565b820191906000526020600020905b81548152906001019060200180831161058957829003601f168201915b50505050509150985098509850985050505050509193509193565b6000606080600080866000811180156105dc57506001548111155b61061b576040517f08c379a000000000000000000000000000000000000000000000000000000000815260040161061290611fb5565b60405180910390fd5b6000600260008a8152602001908152602001600020905060008160070160008a815260200190815260200160002090508060000154816001018260020183600301548460040160009054906101000a900460ff1683805461067b90612116565b80601f01602080910402602001604051908101604052809291908181526020018280546106a790612116565b80156106f45780601f106106c9576101008083540402835291602001916106f4565b820191906000526020600020905b8154815290600101906020018083116106d757829003601f168201915b5050505050935082805461070790612116565b80601f016020809104026020016040519081016040528092919081815260200182805461073390612116565b80156107805780601f1061075557610100808354040283529160200191610780565b820191906000526020600020905b81548152906001019060200180831161076357829003601f168201915b50505050509250975097509750975097505050509295509295909350565b60026020528060005260406000206000915090508060000154908060010180546107c790612116565b80601f01602080910402602001604051908101604052809291908181526020018280546107f390612116565b80156108405780601f1061081557610100808354040283529160200191610840565b820191906000526020600020905b81548152906001019060200180831161082357829003601f168201915b50505050509080600201805461085590612116565b80601f016020809104026020016040519081016040528092919081815260200182805461088190612116565b80156108ce5780601f106108a3576101008083540402835291602001916108ce565b820191906000526020600020905b8154815290600101906020018083116108b157829003601f168201915b5050505050908060030154908060040154908060050154908060060160009054906101000a900460ff16905087565b60008160008111801561091257506001548111155b610951576040517f08c379a000000000000000000000000000000000000000000000000000000000815260040161094890611fb5565b60405180910390fd5b60006002600085815260200190815260200160002090508060060160009054906101000a900460ff16801561098a575080600301544210155b801561099a575080600401544211155b92505050919050565b60008060009054906101000a900473ffffffffffffffffffffffffffffffffffffffff1673ffffffffffffffffffffffffffffffffffffffff163373ffffffffffffffffffffffffffffffffffffffff1614610a34576040517f08c379a0000000000000000000000000000000000000000000000000000000008152600401610a2b906121b9565b60405180910390fd5b818310610a76576040517f08c379a0000000000000000000000000000000000000000000000000000000008152600401610a6d9061224b565b60405180910390fd5b60016000815480929190610a899061209f565b919050555060006002600060015481526020019081526020016000209050600154816000018190555085816001019081610ac3919061241d565b5084816002019081610ad5919061241d565b508381600301819055508281600401819055506000816005018190555060018160060160006101000a81548160ff0219169083151502179055506001547fe7a0aae5d733e07e246dea86213a1ac1b0aa8554bde889bb75c12752f44e53d9878686604051610b45939291906124ef565b60405180910390a2600154915050949350505050565b60608082600081118015610b7157506001548111155b610bb0576040517f08c379a0000000000000000000000000000000000000000000000000000000008152600401610ba790611fb5565b60405180910390fd5b600060026000868152602001908152602001600020905060008160080180549050905060008167ffffffffffffffff811115610bef57610bee611ae3565b5b604051908082528060200260200182016040528015610c1d5781602001602082028036833780820191505090505b50905060008267ffffffffffffffff811115610c3c57610c3b611ae3565b5b604051908082528060200260200182016040528015610c6a5781602001602082028036833780820191505090505b50905060005b83811015610d09576000856008018281548110610c9057610c8f612041565b5b9060005260206000200154905080848381518110610cb157610cb0612041565b5b60200260200101818152505085600701600082815260200190815260200160002060030154838381518110610ce957610ce8612041565b5b602002602001018181525050508080610d019061209f565b915050610c70565b508181965096505050505050915091565b60008054906101000a900473ffffffffffffffffffffffffffffffffffffffff1681565b60008060008085600081118015610d5757506001548111155b610d96576040517f08c379a0000000000000000000000000000000000000000000000000000000008152600401610d8d90611fb5565b60405180910390fd5b600060026000898152602001908152602001600020905060008160090160008973ffffffffffffffffffffffffffffffffffffffff1673ffffffffffffffffffffffffffffffffffffffff16815260200190815260200160002090508060000160009054906101000a900460ff168160000160019054906101000a900460ff1682600101548360020154965096509650965050505092959194509250565b60008054906101000a900473ffffffffffffffffffffffffffffffffffffffff1673ffffffffffffffffffffffffffffffffffffffff163373ffffffffffffffffffffffffffffffffffffffff1614610ec2576040517f08c379a0000000000000000000000000000000000000000000000000000000008152600401610eb9906121b9565b60405180910390fd5b81600081118015610ed557506001548111155b610f14576040517f08c379a0000000000000000000000000000000000000000000000000000000008152600401610f0b90611fb5565b60405180910390fd5b60006002600085815260200190815260200160002090508060090160008473ffffffffffffffffffffffffffffffffffffffff1673ffffffffffffffffffffffffffffffffffffffff16815260200190815260200160002060000160009054906101000a900460ff1615610fbd576040517f08c379a0000000000000000000000000000000000000000000000000000000008152600401610fb490612579565b60405180910390fd5b604051806080016040528060011515815260200160001515815260200160008152602001428152508160090160008573ffffffffffffffffffffffffffffffffffffffff1673ffffffffffffffffffffffffffffffffffffffff16815260200190815260200160002060008201518160000160006101000a81548160ff02191690831515021790555060208201518160000160016101000a81548160ff021916908315150217905550604082015181600101556060820151816002015590505080600a01839080600181540180825580915050600190039060005260206000200160009091909190916101000a81548173ffffffffffffffffffffffffffffffffffffffff021916908373ffffffffffffffffffffffffffffffffffffffff1602179055508273ffffffffffffffffffffffffffffffffffffffff16847ff45b8429c36d478f9a6d081c4811a819b98aa5b608588bed9d406405cf28247360405160405180910390a350505050565b60015481565b60008054906101000a900473ffffffffffffffffffffffffffffffffffffffff1673ffffffffffffffffffffffffffffffffffffffff163373ffffffffffffffffffffffffffffffffffffffff16146111c0576040517f08c379a00000000000000000000000000000000000000000000000000000000081526004016111b7906121b9565b60405180910390fd5b806000811180156111d357506001548111155b611212576040517f08c379a000000000000000000000000000000000000000000000000000000000815260040161120990611fb5565b60405180910390fd5b60006002600084815260200190815260200160002060060160006101000a81548160ff0219169083151502179055505050565b8160008111801561125857506001548111155b611297576040517f08c379a000000000000000000000000000000000000000000000000000000000815260040161128e90611fb5565b60405180910390fd5b82600060026000838152602001908152602001600020905080600301544210156112f6576040517f08c379a00000000000000000000000000000000000000000000000000000000081526004016112ed906125e5565b60405180910390fd5b806004015442111561133d576040517f08c379a000000000000000000000000000000000000000000000000000000000815260040161133490612651565b60405180910390fd5b8060060160009054906101000a900460ff1661138e576040517f08c379a0000000000000000000000000000000000000000000000000000000008152600401611385906126bd565b60405180910390fd5b600060026000878152602001908152602001600020905060008160090160003373ffffffffffffffffffffffffffffffffffffffff1673ffffffffffffffffffffffffffffffffffffffff16815260200190815260200160002090508060000160009054906101000a900460ff1661143b576040517f08c379a000000000000000000000000000000000000000000000000000000000815260040161143290612729565b60405180910390fd5b8060000160019054906101000a900460ff161561148d576040517f08c379a000000000000000000000000000000000000000000000000000000000815260040161148490612795565b60405180910390fd5b81600701600087815260200190815260200160002060040160009054906101000a900460ff166114f2576040517f08c379a00000000000000000000000000000000000000000000000000000000081526004016114e990612801565b60405180910390fd5b60018160000160016101000a81548160ff02191690831515021790555085816001018190555081600701600087815260200190815260200160002060030160008154809291906115419061209f565b919050555081600501600081548092919061155b9061209f565b9190505550853373ffffffffffffffffffffffffffffffffffffffff16887f2acce567deca3aabf56327adbb4524bd5318936eaefa69e3a5208ffda0cfec0960405160405180910390a450505050505050565b60008054906101000a900473ffffffffffffffffffffffffffffffffffffffff1673ffffffffffffffffffffffffffffffffffffffff163373ffffffffffffffffffffffffffffffffffffffff161461163c576040517f08c379a0000000000000000000000000000000000000000000000000000000008152600401611633906121b9565b60405180910390fd5b8360008111801561164f57506001548111155b61168e576040517f08c379a000000000000000000000000000000000000000000000000000000000815260040161168590611fb5565b60405180910390fd5b600060026000878152602001908152602001600020905080600701600086815260200190815260200160002060040160009054906101000a900460ff161561170b576040517f08c379a00000000000000000000000000000000000000000000000000000000081526004016117029061286d565b60405180910390fd5b6040518060a00160405280868152602001858152602001848152602001600081526020016001151581525081600701600087815260200190815260200160002060008201518160000155602082015181600101908161176a919061241d565b506040820151816002019081611780919061241d565b506060820151816003015560808201518160040160006101000a81548160ff0219169083151502179055509050508060080185908060018154018082558091505060019003906000526020600020016000909190919091505584867f503cfceb0fb2178c5fb47ff394c816e4075abc8066c3dcb16d08a76847ee6e16868660405161180c92919061288d565b60405180910390a3505050505050565b6000604051905090565b600080fd5b600080fd5b6000819050919050565b61184381611830565b811461184e57600080fd5b50565b6000813590506118608161183a565b92915050565b60006020828403121561187c5761187b611826565b5b600061188a84828501611851565b91505092915050565b61189c81611830565b82525050565b600081519050919050565b600082825260208201905092915050565b60005b838110156118dc5780820151818401526020810190506118c1565b60008484015250505050565b6000601f19601f8301169050919050565b6000611904826118a2565b61190e81856118ad565b935061191e8185602086016118be565b611927816118e8565b840191505092915050565b60006080820190506119476000830187611893565b818103602083015261195981866118f9565b9050818103604083015261196d81856118f9565b905061197c6060830184611893565b95945050505050565b6000806040838503121561199c5761199b611826565b5b60006119aa85828601611851565b92505060206119bb85828601611851565b9150509250929050565b60008115159050919050565b6119da816119c5565b82525050565b600060a0820190506119f56000830188611893565b8181036020830152611a0781876118f9565b90508181036040830152611a1b81866118f9565b9050611a2a6060830185611893565b611a3760808301846119d1565b9695505050505050565b600060e082019050611a56600083018a611893565b8181036020830152611a6881896118f9565b90508181036040830152611a7c81886118f9565b9050611a8b6060830187611893565b611a986080830186611893565b611aa560a0830185611893565b611ab260c08301846119d1565b98975050505050505050565b6000602082019050611ad360008301846119d1565b92915050565b600080fd5b600080fd5b7f4e487b7100000000000000000000000000000000000000000000000000000000600052604160045260246000fd5b611b1b826118e8565b810181811067ffffffffffffffff82111715611b3a57611b39611ae3565b5b80604052505050565b6000611b4d61181c565b9050611b598282611b12565b919050565b600067ffffffffffffffff821115611b7957611b78611ae3565b5b611b82826118e8565b9050602081019050919050565b82818337600083830152505050565b6000611bb1611bac84611b5e565b611b43565b905082815260208101848484011115611bcd57611bcc611ade565b5b611bd8848285611b8f565b509392505050565b600082601f830112611bf557611bf4611ad9565b5b8135611c05848260208601611b9e565b91505092915050565b60008060008060808587031215611c2857611c27611826565b5b600085013567ffffffffffffffff811115611c4657611c4561182b565b5b611c5287828801611be0565b945050602085013567ffffffffffffffff811115611c7357611c7261182b565b5b611c7f87828801611be0565b9350506040611c9087828801611851565b9250506060611ca187828801611851565b91505092959194509250565b6000602082019050611cc26000830184611893565b92915050565b600081519050919050565b600082825260208201905092915050565b6000819050602082019050919050565b611cfd81611830565b82525050565b6000611d0f8383611cf4565b60208301905092915050565b6000602082019050919050565b6000611d3382611cc8565b611d3d8185611cd3565b9350611d4883611ce4565b8060005b83811015611d79578151611d608882611d03565b9750611d6b83611d1b565b925050600181019050611d4c565b5085935050505092915050565b60006040820190508181036000830152611da08185611d28565b90508181036020830152611db48184611d28565b90509392505050565b600073ffffffffffffffffffffffffffffffffffffffff82169050919050565b6000611de882611dbd565b9050919050565b611df881611ddd565b82525050565b6000602082019050611e136000830184611def565b92915050565b611e2281611ddd565b8114611e2d57600080fd5b50565b600081359050611e3f81611e19565b92915050565b60008060408385031215611e5c57611e5b611826565b5b6000611e6a85828601611851565b9250506020611e7b85828601611e30565b9150509250929050565b6000608082019050611e9a60008301876119d1565b611ea760208301866119d1565b611eb46040830185611893565b611ec16060830184611893565b95945050505050565b60008060008060808587031215611ee457611ee3611826565b5b6000611ef287828801611851565b9450506020611f0387828801611851565b935050604085013567ffffffffffffffff811115611f2457611f2361182b565b5b611f3087828801611be0565b925050606085013567ffffffffffffffff811115611f5157611f5061182b565b5b611f5d87828801611be0565b91505092959194509250565b7f456c656374696f6e20646f6573206e6f74206578697374000000000000000000600082015250565b6000611f9f6017836118ad565b9150611faa82611f69565b602082019050919050565b60006020820190508181036000830152611fce81611f92565b9050919050565b7f4e6f2063616e6469646174657320696e20656c656374696f6e00000000000000600082015250565b600061200b6019836118ad565b915061201682611fd5565b602082019050919050565b6000602082019050818103600083015261203a81611ffe565b9050919050565b7f4e487b7100000000000000000000000000000000000000000000000000000000600052603260045260246000fd5b7f4e487b7100000000000000000000000000000000000000000000000000000000600052601160045260246000fd5b60006120aa82611830565b91507fffffffffffffffffffffffffffffffffffffffffffffffffffffffffffffffff82036120dc576120db612070565b5b600182019050919050565b7f4e487b7100000000000000000000000000000000000000000000000000000000600052602260045260246000fd5b6000600282049050600182168061212e57607f821691505b602082108103612141576121406120e7565b5b50919050565b7f4f6e6c79206f776e65722063616e2063616c6c20746869732066756e6374696f60008201527f6e00000000000000000000000000000000000000000000000000000000000000602082015250565b60006121a36021836118ad565b91506121ae82612147565b604082019050919050565b600060208201905081810360008301526121d281612196565b9050919050565b7f53746172742074696d65206d757374206265206265666f726520656e6420746960008201527f6d65000000000000000000000000000000000000000000000000000000000000602082015250565b60006122356022836118ad565b9150612240826121d9565b604082019050919050565b6000602082019050818103600083015261226481612228565b9050919050565b60008190508160005260206000209050919050565b60006020601f8301049050919050565b60008160020a8302905092915050565b6000600883026122d07fffffffffffffffffffffffffffffffffffffffffffffffffffffffffffffffff82612290565b6122da8683612290565b95508019841693508086168417925050509392505050565b6000819050919050565b600061231761231261230d84611830565b6122f2565b611830565b9050919050565b6000819050919050565b612331836122fc565b61234561233d8261231e565b8484546122a0565b825550505050565b600090565b61235a61234d565b612365818484612328565b505050565b5b818110156123895761237e600082612352565b60018101905061236b565b5050565b601f8211156123ce5761239f8161226b565b6123a884612280565b810160208510156123b7578190505b6123cb6123c385612280565b83018261236a565b50505b505050565b60008160020a8304905092915050565b60006123f4600019846008026123d3565b1980831691505092915050565b600061240d83836123e3565b9150826002028217905092915050565b612426826118a2565b67ffffffffffffffff81111561243f5761243e611ae3565b5b6124498254612116565b61245482828561238d565b600060209050601f8311600181146124875760008415612475578287015190505b61247f8582612401565b8655506124e7565b601f1984166124958661226b565b60005b828110156124bd57848901518255600182019150602085019450602081019050612498565b868310156124da57848901516124d6601f8916826123e3565b8355505b6001600288020188555050505b505050505050565b6000606082019050818103600083015261250981866118f9565b90506125186020830185611893565b6125256040830184611893565b949350505050565b7f566f74657220616c726561647920726567697374657265640000000000000000600082015250565b60006125636018836118ad565b915061256e8261252d565b602082019050919050565b6000602082019050818103600083015261259281612556565b9050919050565b7f566f74696e6720686173206e6f74207374617274656400000000000000000000600082015250565b60006125cf6016836118ad565b91506125da82612599565b602082019050919050565b600060208201905081810360008301526125fe816125c2565b9050919050565b7f566f74696e672068617320656e64656400000000000000000000000000000000600082015250565b600061263b6010836118ad565b915061264682612605565b602082019050919050565b6000602082019050818103600083015261266a8161262e565b9050919050565b7f456c656374696f6e206973206e6f742061637469766500000000000000000000600082015250565b60006126a76016836118ad565b91506126b282612671565b602082019050919050565b600060208201905081810360008301526126d68161269a565b9050919050565b7f566f746572206e6f742072656769737465726564000000000000000000000000600082015250565b60006127136014836118ad565b915061271e826126dd565b602082019050919050565b6000602082019050818103600083015261274281612706565b9050919050565b7f416c726561647920766f74656400000000000000000000000000000000000000600082015250565b600061277f600d836118ad565b915061278a82612749565b602082019050919050565b600060208201905081810360008301526127ae81612772565b9050919050565b7f496e76616c69642063616e646964617465000000000000000000000000000000600082015250565b60006127eb6011836118ad565b91506127f6826127b5565b602082019050919050565b6000602082019050818103600083015261281a816127de565b9050919050565b7f43616e64696461746520616c7265616479206578697374730000000000000000600082015250565b60006128576018836118ad565b915061286282612821565b602082019050919050565b600060208201905081810360008301526128868161284a565b9050919050565b600060408201905081810360008301526128a781856118f9565b905081810360208301526128bb81846118f9565b9050939250505056fea264697066735822122026e4211a956e59c468fe03d23943f0d221c6d9800a0255da415fc1bb49422aab64736f6c63430008130033",
  "immutableReferences": {},
  "source": "// SPDX-License-Identifier: MIT\r\npragma solidity ^0.8.19;\r\n\r\ncontract Voting {\r\n    address public owner;\r\n    uint256 public electionCount;\r\n\r\n    struct Candidate {\r\n        uint256 id;\r\n        string name;\r\n        string party;\r\n        uint256 voteCount;\r\n        bool isActive;\r\n    }\r\n\r\n    struct Voter {\r\n        bool isRegistered;\r\n        bool hasVoted;\r\n        uint256 votedFor;\r\n        uint256 registrationTime;\r\n    }\r\n\r\n    struct Election {\r\n        uint256 id;\r\n        string name;\r\n        string description;\r\n        uint256 startTime;\r\n        uint256 endTime;\r\n        uint256 totalVotes;\r\n        bool isActive;\r\n        mapping(uint256 => Candidate) candidates;\r\n        uint256[] candidateIds;\r\n        mapping(address => Voter) voters;\r\n        address[] voterAddresses;\r\n    }\r\n\r\n    mapping(uint256 => Election) public elections;\r\n\r\n    event ElectionCreated(uint256 indexed electionId, string name, uint256 startTime, uint256 endTime);\r\n    event CandidateAdded(uint256 indexed electionId, uint256 indexed candidateId, string name, string party);\r\n    event VoterRegistered(uint256 indexed electionId, address indexed voter);\r\n    event VoteCast(uint256 indexed electionId, address indexed voter, uint256 indexed candidateId);\r\n\r\n    modifier onlyOwner() {\r\n        require(msg.sender == owner, \"Only owner can call this function\");\r\n        _;\r\n    }\r\n\r\n    modifier electionExists(uint256 _electionId) {\r\n        require(_electionId > 0 && _electionId <= electionCount, \"Election does not exist\");\r\n        _;\r\n    }\r\n\r\n    modifier votingActive(uint256 _electionId) {\r\n        Election storage election = elections[_electionId];\r\n        require(block.timestamp >= election.startTime, \"Voting has not started\");\r\n        require(block.timestamp <= election.endTime, \"Voting has ended\");\r\n        require(election.isActive, \"Election is not active\");\r\n        _;\r\n    }\r\n\r\n    constructor() {\r\n        owner = msg.sender;\r\n        electionCount = 0;\r\n    }\r\n\r\n    // --- Create and manage elections ---\r\n    function createElection(\r\n        string memory _name,\r\n        string memory _description,\r\n        uint256 _startTime,\r\n        uint256 _endTime\r\n    ) public onlyOwner returns (uint256) {\r\n        require(_startTime < _endTime, \"Start time must be before end time\");\r\n\r\n        electionCount++;\r\n        Election storage newElection = elections[electionCount];\r\n        newElection.id = electionCount;\r\n        newElection.name = _name;\r\n        newElection.description = _description;\r\n        newElection.startTime = _startTime;\r\n        newElection.endTime = _endTime;\r\n        newElection.totalVotes = 0;\r\n        newElection.isActive = true;\r\n\r\n        emit ElectionCreated(electionCount, _name, _startTime, _endTime);\r\n        return electionCount;\r\n    }\r\n\r\n    function addCandidate(\r\n        uint256 _electionId,\r\n        uint256 _candidateId,\r\n        string memory _name,\r\n        string memory _party\r\n    ) public onlyOwner electionExists(_electionId) {\r\n        Election storage election = elections[_electionId];\r\n        require(!election.candidates[_candidateId].isActive, \"Candidate already exists\");\r\n\r\n        election.candidates[_candidateId] = Candidate({\r\n            id: _candidateId,\r\n            name: _name,\r\n            party: _party,\r\n            voteCount: 0,\r\n            isActive: true\r\n        });\r\n\r\n        election.candidateIds.push(_candidateId);\r\n\r\n        emit CandidateAdded(_electionId, _candidateId, _name, _party);\r\n    }\r\n\r\n    // --- Register voters ---\r\n    function registerVoter(uint256 _electionId, address _voterAddress) \r\n        public onlyOwner electionExists(_electionId) \r\n    {\r\n        Election storage election = elections[_electionId];\r\n        require(!election.voters[_voterAddress].isRegistered, \"Voter already registered\");\r\n\r\n        election.voters[_voterAddress] = Voter({\r\n            isRegistered: true,\r\n            hasVoted: false,\r\n            votedFor: 0,\r\n            registrationTime: block.timestamp\r\n        });\r\n\r\n        election.voterAddresses.push(_voterAddress);\r\n\r\n        emit VoterRegistered(_electionId, _voterAddress);\r\n    }\r\n\r\n    // --- Voting logic ---\r\n    function vote(uint256 _electionId, uint256 _candidateId) \r\n        public electionExists(_electionId) votingActive(_electionId) \r\n    {\r\n        Election storage election = elections[_electionId];\r\n        Voter storage voter = election.voters[msg.sender];\r\n\r\n        require(voter.isRegistered, \"Voter not registered\");\r\n        require(!voter.hasVoted, \"Already voted\");\r\n        require(election.candidates[_candidateId].isActive, \"Invalid candidate\");\r\n\r\n        voter.hasVoted = true;\r\n        voter.votedFor = _candidateId;\r\n\r\n        election.candidates[_candidateId].voteCount++;\r\n        election.totalVotes++;\r\n\r\n        emit VoteCast(_electionId, msg.sender, _candidateId);\r\n    }\r\n\r\n    // --- View results ---\r\n    function getResults(uint256 _electionId) \r\n        public view electionExists(_electionId) \r\n        returns (uint256[] memory, uint256[] memory) \r\n    {\r\n        Election storage election = elections[_electionId];\r\n        uint256 candidateCount = election.candidateIds.length;\r\n\r\n        uint256[] memory candidateIds = new uint256[](candidateCount);\r\n        uint256[] memory voteCounts = new uint256[](candidateCount);\r\n\r\n        for (uint256 i = 0; i < candidateCount; i++) {\r\n            uint256 candidateId = election.candidateIds[i];\r\n            candidateIds[i] = candidateId;\r\n            voteCounts[i] = election.candidates[candidateId].voteCount;\r\n        }\r\n\r\n        return (candidateIds, voteCounts);\r\n    }\r\n\r\n    function getWinner(uint256 _electionId)\r\n        public view electionExists(_electionId)\r\n        returns (uint256, string memory, string memory, uint256)\r\n    {\r\n        Election storage election = elections[_electionId];\r\n        require(election.candidateIds.length > 0, \"No candidates in election\");\r\n        \r\n        uint256 maxVotes = 0;\r\n        uint256 winningCandidateId = election.candidateIds[0];\r\n\r\n        for (uint256 i = 0; i < election.candidateIds.length; i++) {\r\n            uint256 candidateId = election.candidateIds[i];\r\n            if (election.candidates[candidateId].voteCount > maxVotes) {\r\n                maxVotes = election.candidates[candidateId].voteCount;\r\n                winningCandidateId = candidateId;\r\n            }\r\n        }\r\n\r\n        Candidate storage winner = election.candidates[winningCandidateId];\r\n        return (winner.id, winner.name, winner.party, winner.voteCount);\r\n    }\r\n\r\n    // --- Get individual candidate ---\r\n    function getCandidate(uint256 _electionId, uint256 _candidateId)\r\n        public view electionExists(_electionId)\r\n        returns (uint256, string memory, string memory, uint256, bool)\r\n    {\r\n        Election storage election = elections[_electionId];\r\n        Candidate storage candidate = election.candidates[_candidateId];\r\n        \r\n        return (\r\n            candidate.id,\r\n            candidate.name,\r\n            candidate.party,\r\n            candidate.voteCount,\r\n            candidate.isActive\r\n        );\r\n    }\r\n\r\n    // --- Get individual voter ---\r\n    function getVoter(uint256 _electionId, address _voterAddress)\r\n        public view electionExists(_electionId)\r\n        returns (bool, bool, uint256, uint256)\r\n    {\r\n        Election storage election = elections[_electionId];\r\n        Voter storage voter = election.voters[_voterAddress];\r\n        \r\n        return (\r\n            voter.isRegistered,\r\n            voter.hasVoted,\r\n            voter.votedFor,\r\n            voter.registrationTime\r\n        );\r\n    }\r\n\r\n    // --- Check if voting is active ---\r\n    function isVotingActive(uint256 _electionId) \r\n        public view electionExists(_electionId) \r\n        returns (bool) \r\n    {\r\n        Election storage election = elections[_electionId];\r\n        return (\r\n            election.isActive &&\r\n            block.timestamp >= election.startTime &&\r\n            block.timestamp <= election.endTime\r\n        );\r\n    }\r\n\r\n    // --- End election ---\r\n    function endElection(uint256 _electionId) public onlyOwner electionExists(_electionId) {\r\n        elections[_electionId].isActive = false;\r\n    }\r\n}",
  "sourcePath": "C:\\Users\\yuvra\\OneDrive\\Desktop\\transblock\\contracts\\Voting.sol",
  "compiler": {
    "name": "solc",
    "version": "0.8.19+commit.7dd6d404.Emscripten.clang"
  },
  "schemaVersion": "3.4.16",
  "updatedAt": "2025-09-30T20:04:23.156Z",
  "networkType": "ethereum",
  "devdoc": {
    "kind": "dev",
    "methods": {},
    "version": 1
  },
  "userdoc": {
    "kind": "user",
    "methods": {},
    "version": 1
  }
}